{
  "_format": "hh-sol-artifact-1",
  "contractName": "CollectiveArt",
  "sourceName": "contracts/CollectiveArt.sol",
  "abi": [
    {
      "inputs": [
        {
          "internalType": "string",
          "name": "name",
          "type": "string"
        },
        {
          "internalType": "string",
          "name": "symbol",
          "type": "string"
        }
      ],
      "stateMutability": "nonpayable",
      "type": "constructor"
    },
    {
      "inputs": [
        {
          "internalType": "address",
          "name": "sender",
          "type": "address"
        },
        {
          "internalType": "uint256",
          "name": "tokenId",
          "type": "uint256"
        },
        {
          "internalType": "address",
          "name": "owner",
          "type": "address"
        }
      ],
      "name": "ERC721IncorrectOwner",
      "type": "error"
    },
    {
      "inputs": [
        {
          "internalType": "address",
          "name": "operator",
          "type": "address"
        },
        {
          "internalType": "uint256",
          "name": "tokenId",
          "type": "uint256"
        }
      ],
      "name": "ERC721InsufficientApproval",
      "type": "error"
    },
    {
      "inputs": [
        {
          "internalType": "address",
          "name": "approver",
          "type": "address"
        }
      ],
      "name": "ERC721InvalidApprover",
      "type": "error"
    },
    {
      "inputs": [
        {
          "internalType": "address",
          "name": "operator",
          "type": "address"
        }
      ],
      "name": "ERC721InvalidOperator",
      "type": "error"
    },
    {
      "inputs": [
        {
          "internalType": "address",
          "name": "owner",
          "type": "address"
        }
      ],
      "name": "ERC721InvalidOwner",
      "type": "error"
    },
    {
      "inputs": [
        {
          "internalType": "address",
          "name": "receiver",
          "type": "address"
        }
      ],
      "name": "ERC721InvalidReceiver",
      "type": "error"
    },
    {
      "inputs": [
        {
          "internalType": "address",
          "name": "sender",
          "type": "address"
        }
      ],
      "name": "ERC721InvalidSender",
      "type": "error"
    },
    {
      "inputs": [
        {
          "internalType": "uint256",
          "name": "tokenId",
          "type": "uint256"
        }
      ],
      "name": "ERC721NonexistentToken",
      "type": "error"
    },
    {
      "anonymous": false,
      "inputs": [
        {
          "indexed": true,
          "internalType": "address",
          "name": "owner",
          "type": "address"
        },
        {
          "indexed": true,
          "internalType": "address",
          "name": "approved",
          "type": "address"
        },
        {
          "indexed": true,
          "internalType": "uint256",
          "name": "tokenId",
          "type": "uint256"
        }
      ],
      "name": "Approval",
      "type": "event"
    },
    {
      "anonymous": false,
      "inputs": [
        {
          "indexed": true,
          "internalType": "address",
          "name": "owner",
          "type": "address"
        },
        {
          "indexed": true,
          "internalType": "address",
          "name": "operator",
          "type": "address"
        },
        {
          "indexed": false,
          "internalType": "bool",
          "name": "approved",
          "type": "bool"
        }
      ],
      "name": "ApprovalForAll",
      "type": "event"
    },
    {
      "anonymous": false,
      "inputs": [
        {
          "indexed": false,
          "internalType": "uint256",
          "name": "tokenId",
          "type": "uint256"
        },
        {
          "indexed": false,
          "internalType": "address",
          "name": "collective",
          "type": "address"
        },
        {
          "indexed": false,
          "internalType": "string",
          "name": "tokenURI",
          "type": "string"
        }
      ],
      "name": "ArtworkMinted",
      "type": "event"
    },
    {
      "anonymous": false,
      "inputs": [
        {
          "indexed": false,
          "internalType": "uint256",
          "name": "_fromTokenId",
          "type": "uint256"
        },
        {
          "indexed": false,
          "internalType": "uint256",
          "name": "_toTokenId",
          "type": "uint256"
        }
      ],
      "name": "BatchMetadataUpdate",
      "type": "event"
    },
    {
      "anonymous": false,
      "inputs": [
        {
          "indexed": false,
          "internalType": "address",
          "name": "collaborator",
          "type": "address"
        }
      ],
      "name": "CollaboratorAdded",
      "type": "event"
    },
    {
      "anonymous": false,
      "inputs": [
        {
          "indexed": false,
          "internalType": "address",
          "name": "collaborator",
          "type": "address"
        }
      ],
      "name": "CollaboratorRemoved",
      "type": "event"
    },
    {
      "anonymous": false,
      "inputs": [
        {
          "indexed": false,
          "internalType": "uint256",
          "name": "_tokenId",
          "type": "uint256"
        }
      ],
      "name": "MetadataUpdate",
      "type": "event"
    },
    {
      "anonymous": false,
      "inputs": [
        {
          "indexed": true,
          "internalType": "address",
          "name": "from",
          "type": "address"
        },
        {
          "indexed": true,
          "internalType": "address",
          "name": "to",
          "type": "address"
        },
        {
          "indexed": true,
          "internalType": "uint256",
          "name": "tokenId",
          "type": "uint256"
        }
      ],
      "name": "Transfer",
      "type": "event"
    },
    {
      "inputs": [
        {
          "internalType": "address",
          "name": "collaborator",
          "type": "address"
        }
      ],
      "name": "addCollaborator",
      "outputs": [],
      "stateMutability": "nonpayable",
      "type": "function"
    },
    {
      "inputs": [
        {
          "internalType": "address",
          "name": "to",
          "type": "address"
        },
        {
          "internalType": "uint256",
          "name": "tokenId",
          "type": "uint256"
        }
      ],
      "name": "approve",
      "outputs": [],
      "stateMutability": "nonpayable",
      "type": "function"
    },
    {
      "inputs": [],
      "name": "artworkCounter",
      "outputs": [
        {
          "internalType": "uint256",
          "name": "",
          "type": "uint256"
        }
      ],
      "stateMutability": "view",
      "type": "function"
    },
    {
      "inputs": [
        {
          "internalType": "uint256",
          "name": "",
          "type": "uint256"
        }
      ],
      "name": "artworks",
      "outputs": [
        {
          "internalType": "uint256",
          "name": "id",
          "type": "uint256"
        },
        {
          "internalType": "string",
          "name": "tokenURI",
          "type": "string"
        },
        {
          "internalType": "address",
          "name": "collective",
          "type": "address"
        }
      ],
      "stateMutability": "view",
      "type": "function"
    },
    {
      "inputs": [
        {
          "internalType": "address",
          "name": "owner",
          "type": "address"
        }
      ],
      "name": "balanceOf",
      "outputs": [
        {
          "internalType": "uint256",
          "name": "",
          "type": "uint256"
        }
      ],
      "stateMutability": "view",
      "type": "function"
    },
    {
      "inputs": [
        {
          "internalType": "uint256",
          "name": "",
          "type": "uint256"
        }
      ],
      "name": "collaboratorList",
      "outputs": [
        {
          "internalType": "address",
          "name": "",
          "type": "address"
        }
      ],
      "stateMutability": "view",
      "type": "function"
    },
    {
      "inputs": [
        {
          "internalType": "address",
          "name": "",
          "type": "address"
        }
      ],
      "name": "collaborators",
      "outputs": [
        {
          "internalType": "bool",
          "name": "",
          "type": "bool"
        }
      ],
      "stateMutability": "view",
      "type": "function"
    },
    {
      "inputs": [
        {
          "internalType": "uint256",
          "name": "tokenId",
          "type": "uint256"
        }
      ],
      "name": "getApproved",
      "outputs": [
        {
          "internalType": "address",
          "name": "",
          "type": "address"
        }
      ],
      "stateMutability": "view",
      "type": "function"
    },
    {
      "inputs": [
        {
          "internalType": "uint256",
          "name": "tokenId",
          "type": "uint256"
        }
      ],
      "name": "getArtwork",
      "outputs": [
        {
          "internalType": "uint256",
          "name": "id",
          "type": "uint256"
        },
        {
          "internalType": "string",
          "name": "uri",
          "type": "string"
        },
        {
          "internalType": "address",
          "name": "artist",
          "type": "address"
        }
      ],
      "stateMutability": "view",
      "type": "function"
    },
    {
      "inputs": [],
      "name": "getArtworks",
      "outputs": [
        {
          "components": [
            {
              "internalType": "uint256",
              "name": "id",
              "type": "uint256"
            },
            {
              "internalType": "string",
              "name": "tokenURI",
              "type": "string"
            },
            {
              "internalType": "address",
              "name": "collective",
              "type": "address"
            }
          ],
          "internalType": "struct CollectiveArt.Artwork[]",
          "name": "",
          "type": "tuple[]"
        }
      ],
      "stateMutability": "view",
      "type": "function"
    },
    {
      "inputs": [],
      "name": "getCollaborators",
      "outputs": [
        {
          "internalType": "address[]",
          "name": "",
          "type": "address[]"
        }
      ],
      "stateMutability": "view",
      "type": "function"
    },
    {
      "inputs": [
        {
          "internalType": "uint256",
          "name": "tokenId",
          "type": "uint256"
        }
      ],
      "name": "getTokenURI",
      "outputs": [
        {
          "internalType": "string",
          "name": "",
          "type": "string"
        }
      ],
      "stateMutability": "view",
      "type": "function"
    },
    {
      "inputs": [
        {
          "internalType": "address",
          "name": "owner",
          "type": "address"
        },
        {
          "internalType": "address",
          "name": "operator",
          "type": "address"
        }
      ],
      "name": "isApprovedForAll",
      "outputs": [
        {
          "internalType": "bool",
          "name": "",
          "type": "bool"
        }
      ],
      "stateMutability": "view",
      "type": "function"
    },
    {
      "inputs": [
        {
          "internalType": "address",
          "name": "collective",
          "type": "address"
        },
        {
          "internalType": "string",
          "name": "uri",
          "type": "string"
        }
      ],
      "name": "mintNFT",
      "outputs": [
        {
          "internalType": "uint256",
          "name": "",
          "type": "uint256"
        }
      ],
      "stateMutability": "nonpayable",
      "type": "function"
    },
    {
      "inputs": [],
      "name": "name",
      "outputs": [
        {
          "internalType": "string",
          "name": "",
          "type": "string"
        }
      ],
      "stateMutability": "view",
      "type": "function"
    },
    {
      "inputs": [
        {
          "internalType": "uint256",
          "name": "tokenId",
          "type": "uint256"
        }
      ],
      "name": "ownerOf",
      "outputs": [
        {
          "internalType": "address",
          "name": "",
          "type": "address"
        }
      ],
      "stateMutability": "view",
      "type": "function"
    },
    {
      "inputs": [
        {
          "internalType": "address",
          "name": "collaborator",
          "type": "address"
        }
      ],
      "name": "removeCollaborator",
      "outputs": [],
      "stateMutability": "nonpayable",
      "type": "function"
    },
    {
      "inputs": [
        {
          "internalType": "address",
          "name": "from",
          "type": "address"
        },
        {
          "internalType": "address",
          "name": "to",
          "type": "address"
        },
        {
          "internalType": "uint256",
          "name": "tokenId",
          "type": "uint256"
        }
      ],
      "name": "safeTransferFrom",
      "outputs": [],
      "stateMutability": "nonpayable",
      "type": "function"
    },
    {
      "inputs": [
        {
          "internalType": "address",
          "name": "from",
          "type": "address"
        },
        {
          "internalType": "address",
          "name": "to",
          "type": "address"
        },
        {
          "internalType": "uint256",
          "name": "tokenId",
          "type": "uint256"
        },
        {
          "internalType": "bytes",
          "name": "data",
          "type": "bytes"
        }
      ],
      "name": "safeTransferFrom",
      "outputs": [],
      "stateMutability": "nonpayable",
      "type": "function"
    },
    {
      "inputs": [
        {
          "internalType": "address",
          "name": "operator",
          "type": "address"
        },
        {
          "internalType": "bool",
          "name": "approved",
          "type": "bool"
        }
      ],
      "name": "setApprovalForAll",
      "outputs": [],
      "stateMutability": "nonpayable",
      "type": "function"
    },
    {
      "inputs": [
        {
          "internalType": "uint256",
          "name": "tokenId",
          "type": "uint256"
        },
        {
          "internalType": "string",
          "name": "_tokenURI",
          "type": "string"
        }
      ],
      "name": "setTokenURI",
      "outputs": [],
      "stateMutability": "nonpayable",
      "type": "function"
    },
    {
      "inputs": [
        {
          "internalType": "bytes4",
          "name": "interfaceId",
          "type": "bytes4"
        }
      ],
      "name": "supportsInterface",
      "outputs": [
        {
          "internalType": "bool",
          "name": "",
          "type": "bool"
        }
      ],
      "stateMutability": "view",
      "type": "function"
    },
    {
      "inputs": [],
      "name": "symbol",
      "outputs": [
        {
          "internalType": "string",
          "name": "",
          "type": "string"
        }
      ],
      "stateMutability": "view",
      "type": "function"
    },
    {
      "inputs": [
        {
          "internalType": "uint256",
          "name": "tokenId",
          "type": "uint256"
        }
      ],
      "name": "tokenURI",
      "outputs": [
        {
          "internalType": "string",
          "name": "",
          "type": "string"
        }
      ],
      "stateMutability": "view",
      "type": "function"
    },
    {
      "inputs": [
        {
          "internalType": "address",
          "name": "from",
          "type": "address"
        },
        {
          "internalType": "address",
          "name": "to",
          "type": "address"
        },
        {
          "internalType": "uint256",
          "name": "tokenId",
          "type": "uint256"
        }
      ],
      "name": "transferFrom",
      "outputs": [],
      "stateMutability": "nonpayable",
      "type": "function"
    }
  ],
  "bytecode": "0x60806040523480156200001157600080fd5b506040516200214038038062002140833981016040819052620000349162000123565b818160006200004483826200021c565b5060016200005382826200021c565b5050505050620002e8565b634e487b7160e01b600052604160045260246000fd5b600082601f8301126200008657600080fd5b81516001600160401b0380821115620000a357620000a36200005e565b604051601f8301601f19908116603f01168101908282118183101715620000ce57620000ce6200005e565b81604052838152602092508683858801011115620000eb57600080fd5b600091505b838210156200010f5785820183015181830184015290820190620000f0565b600093810190920192909252949350505050565b600080604083850312156200013757600080fd5b82516001600160401b03808211156200014f57600080fd5b6200015d8683870162000074565b935060208501519150808211156200017457600080fd5b50620001838582860162000074565b9150509250929050565b600181811c90821680620001a257607f821691505b602082108103620001c357634e487b7160e01b600052602260045260246000fd5b50919050565b601f8211156200021757600081815260208120601f850160051c81016020861015620001f25750805b601f850160051c820191505b818110156200021357828155600101620001fe565b5050505b505050565b81516001600160401b038111156200023857620002386200005e565b62000250816200024984546200018d565b84620001c9565b602080601f8311600181146200028857600084156200026f5750858301515b600019600386901b1c1916600185901b17855562000213565b600085815260208120601f198616915b82811015620002b95788860151825594840194600190910190840162000298565b5085821015620002d85787850151600019600388901b60f8161c191681555b5050505050600190811b01905550565b611e4880620002f86000396000f3fe608060405234801561001057600080fd5b50600436106101725760003560e01c80634b602673116100de578063b9f13be011610097578063ccdbe6a611610071578063ccdbe6a614610355578063e985e9c514610368578063eacabe141461037b578063ffad0fc61461038e57600080fd5b8063b9f13be01461030c578063c496e5e91461032f578063c87b56dd1461034257600080fd5b80634b602673146102a55780636352211e146102b857806370a08231146102cb57806395d89b41146102de578063a22cb465146102e6578063b88d4fde146102f957600080fd5b8063167ddf6e11610130578063167ddf6e1461022057806323b872dd146102425780633109c19d14610255578063390593a1146102685780633bb3a24d1461027f57806342842e0e1461029257600080fd5b8062a715271461017757806301ffc9a71461019557806306fdde03146101b8578063081812fc146101cd578063095ea7b3146101f8578063162094c41461020d575b600080fd5b61017f6103a3565b60405161018c919061170f565b60405180910390f35b6101a86101a33660046117b2565b61054d565b604051901515815260200161018c565b6101c061055e565b60405161018c91906117cf565b6101e06101db3660046117e2565b6105f0565b6040516001600160a01b03909116815260200161018c565b61020b610206366004611817565b610619565b005b61020b61021b3660046118ed565b610628565b61023361022e3660046117e2565b6106b3565b60405161018c93929190611934565b61020b610250366004611965565b61077d565b61020b6102633660046119a1565b610808565b61027160085481565b60405190815260200161018c565b6101c061028d3660046117e2565b6109cc565b61020b6102a0366004611965565b6109d7565b6102336102b33660046117e2565b6109f7565b6101e06102c63660046117e2565b610aab565b6102716102d93660046119a1565b610ab6565b6101c0610afe565b61020b6102f43660046119bc565b610b0d565b61020b6103073660046119f8565b610b18565b6101a861031a3660046119a1565b60096020526000908152604090205460ff1681565b6101e061033d3660046117e2565b610b30565b6101c06103503660046117e2565b610b5a565b61020b6103633660046119a1565b610b65565b6101a8610376366004611a74565b610c5d565b610271610389366004611aa7565b610c8b565b610396610d3b565b60405161018c9190611adf565b6060600060085467ffffffffffffffff8111156103c2576103c2611841565b60405190808252806020026020018201604052801561042057816020015b61040d6040518060600160405280600081526020016060815260200160006001600160a01b031681525090565b8152602001906001900390816103e05790505b50905060005b60085481101561054757600061043d826001611b42565b90506000600760008381526020019081526020016000209050806040518060600160405290816000820154815260200160018201805461047c90611b55565b80601f01602080910402602001604051908101604052809291908181526020018280546104a890611b55565b80156104f55780601f106104ca576101008083540402835291602001916104f5565b820191906000526020600020905b8154815290600101906020018083116104d857829003601f168201915b5050509183525050600291909101546001600160a01b0316602090910152845185908590811061052757610527611b89565b60200260200101819052505050808061053f90611b9f565b915050610426565b50919050565b600061055882610d9c565b92915050565b60606000805461056d90611b55565b80601f016020809104026020016040519081016040528092919081815260200182805461059990611b55565b80156105e65780601f106105bb576101008083540402835291602001916105e6565b820191906000526020600020905b8154815290600101906020018083116105c957829003601f168201915b5050505050905090565b60006105fb82610dc1565b506000828152600460205260409020546001600160a01b0316610558565b610624828233610dfa565b5050565b3361063283610aab565b6001600160a01b03161461068d5760405162461bcd60e51b815260206004820152601c60248201527f4f6e6c7920746f6b656e206f776e65722063616e20736574205552490000000060448201526064015b60405180910390fd5b60008281526007602052604090206001016106a88282611bfe565b506106248282610e07565b600081815260076020526040812080546002820154600183018054606094869490939092916001600160a01b039091169082906106ef90611b55565b80601f016020809104026020016040519081016040528092919081815260200182805461071b90611b55565b80156107685780601f1061073d57610100808354040283529160200191610768565b820191906000526020600020905b81548152906001019060200180831161074b57829003601f168201915b50505050509150935093509350509193909250565b6001600160a01b0382166107a757604051633250574960e11b815260006004820152602401610684565b60006107b4838333610e57565b9050836001600160a01b0316816001600160a01b031614610802576040516364283d7b60e01b81526001600160a01b0380861660048301526024820184905282166044820152606401610684565b50505050565b6001600160a01b03811660009081526009602052604090205460ff166108655760405162461bcd60e51b81526020600482015260126024820152712737ba10309031b7b63630b137b930ba37b960711b6044820152606401610684565b6001600160a01b0381166000908152600960205260408120805460ff191690555b600a5481101561098b57816001600160a01b0316600a82815481106108ad576108ad611b89565b6000918252602090912001546001600160a01b03160361097957600a80546108d790600190611cbe565b815481106108e7576108e7611b89565b600091825260209091200154600a80546001600160a01b03909216918390811061091357610913611b89565b9060005260206000200160006101000a8154816001600160a01b0302191690836001600160a01b03160217905550600a80548061095257610952611cd1565b600082815260209020810160001990810180546001600160a01b031916905501905561098b565b8061098381611b9f565b915050610886565b506040516001600160a01b03821681527f462d5465fb03f75fbc7041bd2793aa7a31228200b8b06932d8d09a1ab07d307d906020015b60405180910390a150565b606061055882610b5a565b6109f283838360405180602001604052806000815250610b18565b505050565b60076020526000908152604090208054600182018054919291610a1990611b55565b80601f0160208091040260200160405190810160405280929190818152602001828054610a4590611b55565b8015610a925780601f10610a6757610100808354040283529160200191610a92565b820191906000526020600020905b815481529060010190602001808311610a7557829003601f168201915b505050600290930154919250506001600160a01b031683565b600061055882610dc1565b60006001600160a01b038216610ae2576040516322718ad960e21b815260006004820152602401610684565b506001600160a01b031660009081526003602052604090205490565b60606001805461056d90611b55565b610624338383610f50565b610b2384848461077d565b6108023385858585610fef565b600a8181548110610b4057600080fd5b6000918252602090912001546001600160a01b0316905081565b60606105588261111a565b6001600160a01b03811660009081526009602052604090205460ff1615610bc75760405162461bcd60e51b815260206004820152601660248201527520b63932b0b23c90309031b7b63630b137b930ba37b960511b6044820152606401610684565b6001600160a01b0381166000818152600960209081526040808320805460ff19166001908117909155600a805491820181559093527fc65a7bb8d6351c1cf70c95a316cc6a92839c986682d98bc35f958f4883f9d2a890920180546001600160a01b0319168417905590519182527f4e94d74a2e4483c0539321ba103f7f9a703453da02945cf5b2fabef18e688ef291016109c1565b6001600160a01b03918216600090815260056020908152604080832093909416825291909152205460ff1690565b6008805460009182610c9c83611b9f565b909155505060085460008181526007602052604090208181556002810180546001600160a01b0319166001600160a01b03871617905560018101610ce08582611bfe565b50610ceb858361122b565b610cf58285610e07565b7fa9eee6db348cd85744a0dbd259b75b7a3d51f99785db7ef05829954c2042a0ad828683600101604051610d2b93929190611ce7565b60405180910390a1509392505050565b6060600a8054806020026020016040519081016040528092919081815260200182805480156105e657602002820191906000526020600020905b81546001600160a01b03168152600190910190602001808311610d75575050505050905090565b60006001600160e01b03198216632483248360e11b1480610558575061055882611245565b6000818152600260205260408120546001600160a01b03168061055857604051637e27328960e01b815260048101849052602401610684565b6109f28383836001611295565b6000828152600660205260409020610e1f8282611bfe565b506040518281527ff8e1a15aba9398e019f0b49df1a4fde98ee17ae345cb5f6b5e2c27f5033e8ce79060200160405180910390a15050565b6000828152600260205260408120546001600160a01b0390811690831615610e8457610e8481848661139b565b6001600160a01b03811615610ec257610ea1600085600080611295565b6001600160a01b038116600090815260036020526040902080546000190190555b6001600160a01b03851615610ef1576001600160a01b0385166000908152600360205260409020805460010190555b60008481526002602052604080822080546001600160a01b0319166001600160a01b0389811691821790925591518793918516917fddf252ad1be2c89b69c2b068fc378daa952ba7f163c4a11628f55a4df523b3ef91a4949350505050565b6001600160a01b038216610f8257604051630b61174360e31b81526001600160a01b0383166004820152602401610684565b6001600160a01b03838116600081815260056020908152604080832094871680845294825291829020805460ff191686151590811790915591519182527f17307eab39ab6107e8899845ad3d59bd9653f200f220920489ca2b5937696c31910160405180910390a3505050565b6001600160a01b0383163b1561111357604051630a85bd0160e11b81526001600160a01b0384169063150b7a0290611031908890889087908790600401611d89565b6020604051808303816000875af192505050801561106c575060408051601f3d908101601f1916820190925261106991810190611dc6565b60015b6110d5573d80801561109a576040519150601f19603f3d011682016040523d82523d6000602084013e61109f565b606091505b5080516000036110cd57604051633250574960e11b81526001600160a01b0385166004820152602401610684565b805181602001fd5b6001600160e01b03198116630a85bd0160e11b1461111157604051633250574960e11b81526001600160a01b0385166004820152602401610684565b505b5050505050565b606061112582610dc1565b506000828152600660205260408120805461113f90611b55565b80601f016020809104026020016040519081016040528092919081815260200182805461116b90611b55565b80156111b85780601f1061118d576101008083540402835291602001916111b8565b820191906000526020600020905b81548152906001019060200180831161119b57829003601f168201915b5050505050905060006111d660408051602081019091526000815290565b905080516000036111e8575092915050565b81511561121a578082604051602001611202929190611de3565b60405160208183030381529060405292505050919050565b611223846113ff565b949350505050565b610624828260405180602001604052806000815250611474565b60006001600160e01b031982166380ac58cd60e01b148061127657506001600160e01b03198216635b5e139f60e01b145b8061055857506301ffc9a760e01b6001600160e01b0319831614610558565b80806112a957506001600160a01b03821615155b1561136b5760006112b984610dc1565b90506001600160a01b038316158015906112e55750826001600160a01b0316816001600160a01b031614155b80156112f857506112f68184610c5d565b155b156113215760405163a9fbf51f60e01b81526001600160a01b0384166004820152602401610684565b81156113695783856001600160a01b0316826001600160a01b03167f8c5be1e5ebec7d5bd14f71427d1e84f3dd0314c0f7b2291e5b200ac8c7c3b92560405160405180910390a45b505b5050600090815260046020526040902080546001600160a01b0319166001600160a01b0392909216919091179055565b6113a683838361148c565b6109f2576001600160a01b0383166113d457604051637e27328960e01b815260048101829052602401610684565b60405163177e802f60e01b81526001600160a01b038316600482015260248101829052604401610684565b606061140a82610dc1565b50600061142260408051602081019091526000815290565b90506000815111611442576040518060200160405280600081525061146d565b8061144c846114ef565b60405160200161145d929190611de3565b6040516020818303038152906040525b9392505050565b61147e8383611582565b6109f2336000858585610fef565b60006001600160a01b038316158015906112235750826001600160a01b0316846001600160a01b031614806114c657506114c68484610c5d565b806112235750506000908152600460205260409020546001600160a01b03908116911614919050565b606060006114fc836115e7565b600101905060008167ffffffffffffffff81111561151c5761151c611841565b6040519080825280601f01601f191660200182016040528015611546576020820181803683370190505b5090508181016020015b600019016f181899199a1a9b1b9c1cb0b131b232b360811b600a86061a8153600a850494508461155057509392505050565b6001600160a01b0382166115ac57604051633250574960e11b815260006004820152602401610684565b60006115ba83836000610e57565b90506001600160a01b038116156109f2576040516339e3563760e11b815260006004820152602401610684565b60008072184f03e93ff9f4daa797ed6e38ed64bf6a1f0160401b83106116265772184f03e93ff9f4daa797ed6e38ed64bf6a1f0160401b830492506040015b6d04ee2d6d415b85acef81000000008310611652576d04ee2d6d415b85acef8100000000830492506020015b662386f26fc10000831061167057662386f26fc10000830492506010015b6305f5e1008310611688576305f5e100830492506008015b612710831061169c57612710830492506004015b606483106116ae576064830492506002015b600a83106105585760010192915050565b60005b838110156116da5781810151838201526020016116c2565b50506000910152565b600081518084526116fb8160208601602086016116bf565b601f01601f19169290920160200192915050565b60006020808301818452808551808352604092508286019150828160051b87010184880160005b8381101561178b57603f19898403018552815160608151855288820151818a870152611764828701826116e3565b928901516001600160a01b0316958901959095525094870194925090860190600101611736565b509098975050505050505050565b6001600160e01b0319811681146117af57600080fd5b50565b6000602082840312156117c457600080fd5b813561146d81611799565b60208152600061146d60208301846116e3565b6000602082840312156117f457600080fd5b5035919050565b80356001600160a01b038116811461181257600080fd5b919050565b6000806040838503121561182a57600080fd5b611833836117fb565b946020939093013593505050565b634e487b7160e01b600052604160045260246000fd5b600067ffffffffffffffff8084111561187257611872611841565b604051601f8501601f19908116603f0116810190828211818310171561189a5761189a611841565b816040528093508581528686860111156118b357600080fd5b858560208301376000602087830101525050509392505050565b600082601f8301126118de57600080fd5b61146d83833560208501611857565b6000806040838503121561190057600080fd5b82359150602083013567ffffffffffffffff81111561191e57600080fd5b61192a858286016118cd565b9150509250929050565b83815260606020820152600061194d60608301856116e3565b905060018060a01b0383166040830152949350505050565b60008060006060848603121561197a57600080fd5b611983846117fb565b9250611991602085016117fb565b9150604084013590509250925092565b6000602082840312156119b357600080fd5b61146d826117fb565b600080604083850312156119cf57600080fd5b6119d8836117fb565b9150602083013580151581146119ed57600080fd5b809150509250929050565b60008060008060808587031215611a0e57600080fd5b611a17856117fb565b9350611a25602086016117fb565b925060408501359150606085013567ffffffffffffffff811115611a4857600080fd5b8501601f81018713611a5957600080fd5b611a6887823560208401611857565b91505092959194509250565b60008060408385031215611a8757600080fd5b611a90836117fb565b9150611a9e602084016117fb565b90509250929050565b60008060408385031215611aba57600080fd5b611ac3836117fb565b9150602083013567ffffffffffffffff81111561191e57600080fd5b6020808252825182820181905260009190848201906040850190845b81811015611b205783516001600160a01b031683529284019291840191600101611afb565b50909695505050505050565b634e487b7160e01b600052601160045260246000fd5b8082018082111561055857610558611b2c565b600181811c90821680611b6957607f821691505b60208210810361054757634e487b7160e01b600052602260045260246000fd5b634e487b7160e01b600052603260045260246000fd5b600060018201611bb157611bb1611b2c565b5060010190565b601f8211156109f257600081815260208120601f850160051c81016020861015611bdf5750805b601f850160051c820191505b8181101561111157828155600101611beb565b815167ffffffffffffffff811115611c1857611c18611841565b611c2c81611c268454611b55565b84611bb8565b602080601f831160018114611c615760008415611c495750858301515b600019600386901b1c1916600185901b178555611111565b600085815260208120601f198616915b82811015611c9057888601518255948401946001909101908401611c71565b5085821015611cae5787850151600019600388901b60f8161c191681555b5050505050600190811b01905550565b8181038181111561055857610558611b2c565b634e487b7160e01b600052603160045260246000fd5b8381526000602060018060a01b038516818401526060604084015260008454611d0f81611b55565b8060608701526080600180841660008114611d315760018114611d4b57611d79565b60ff1985168984015283151560051b890183019550611d79565b896000528660002060005b85811015611d715781548b8201860152908301908801611d56565b8a0184019650505b50939a9950505050505050505050565b6001600160a01b0385811682528416602082015260408101839052608060608201819052600090611dbc908301846116e3565b9695505050505050565b600060208284031215611dd857600080fd5b815161146d81611799565b60008351611df58184602088016116bf565b835190830190611e098183602088016116bf565b0194935050505056fea264697066735822122061168aa26f5dc22b82c0767a0502126e1aed32680f94b817357caa8875cdfa4264736f6c63430008140033",
  "linkReferences": {},
  "deployedLinkReferences": {}
}